{
  "_format": "hh-sol-artifact-1",
  "contractName": "DonationPlatform",
  "sourceName": "contracts/DonationPlatform.sol",
  "abi": [
    {
      "inputs": [],
      "stateMutability": "nonpayable",
      "type": "constructor"
    },
    {
      "inputs": [
        {
          "internalType": "address",
          "name": "owner",
          "type": "address"
        }
      ],
      "name": "OwnableInvalidOwner",
      "type": "error"
    },
    {
      "inputs": [
        {
          "internalType": "address",
          "name": "account",
          "type": "address"
        }
      ],
      "name": "OwnableUnauthorizedAccount",
      "type": "error"
    },
    {
      "inputs": [],
      "name": "ReentrancyGuardReentrantCall",
      "type": "error"
    },
    {
      "anonymous": false,
      "inputs": [
        {
          "indexed": true,
          "internalType": "uint256",
          "name": "donationId",
          "type": "uint256"
        },
        {
          "indexed": true,
          "internalType": "address",
          "name": "donor",
          "type": "address"
        },
        {
          "indexed": true,
          "internalType": "uint256",
          "name": "studentId",
          "type": "uint256"
        },
        {
          "indexed": false,
          "internalType": "uint256",
          "name": "amount",
          "type": "uint256"
        }
      ],
      "name": "DonationReceived",
      "type": "event"
    },
    {
      "anonymous": false,
      "inputs": [
        {
          "indexed": true,
          "internalType": "uint256",
          "name": "studentId",
          "type": "uint256"
        },
        {
          "indexed": false,
          "internalType": "uint256",
          "name": "amount",
          "type": "uint256"
        }
      ],
      "name": "FundsDisbursed",
      "type": "event"
    },
    {
      "anonymous": false,
      "inputs": [
        {
          "indexed": true,
          "internalType": "address",
          "name": "previousOwner",
          "type": "address"
        },
        {
          "indexed": true,
          "internalType": "address",
          "name": "newOwner",
          "type": "address"
        }
      ],
      "name": "OwnershipTransferred",
      "type": "event"
    },
    {
      "anonymous": false,
      "inputs": [
        {
          "indexed": true,
          "internalType": "uint256",
          "name": "studentId",
          "type": "uint256"
        },
        {
          "indexed": false,
          "internalType": "string",
          "name": "resourceType",
          "type": "string"
        },
        {
          "indexed": false,
          "internalType": "uint256",
          "name": "beforeCount",
          "type": "uint256"
        },
        {
          "indexed": false,
          "internalType": "uint256",
          "name": "afterCount",
          "type": "uint256"
        }
      ],
      "name": "ResourceTracked",
      "type": "event"
    },
    {
      "anonymous": false,
      "inputs": [
        {
          "indexed": true,
          "internalType": "uint256",
          "name": "schoolId",
          "type": "uint256"
        },
        {
          "indexed": false,
          "internalType": "string",
          "name": "name",
          "type": "string"
        },
        {
          "indexed": false,
          "internalType": "string",
          "name": "location",
          "type": "string"
        }
      ],
      "name": "SchoolAdded",
      "type": "event"
    },
    {
      "anonymous": false,
      "inputs": [
        {
          "indexed": true,
          "internalType": "uint256",
          "name": "studentId",
          "type": "uint256"
        },
        {
          "indexed": false,
          "internalType": "string",
          "name": "name",
          "type": "string"
        },
        {
          "indexed": false,
          "internalType": "uint256",
          "name": "targetAmount",
          "type": "uint256"
        }
      ],
      "name": "StudentAdded",
      "type": "event"
    },
    {
      "inputs": [
        {
          "internalType": "string",
          "name": "_name",
          "type": "string"
        },
        {
          "internalType": "string",
          "name": "_location",
          "type": "string"
        },
        {
          "internalType": "int256",
          "name": "_latitude",
          "type": "int256"
        },
        {
          "internalType": "int256",
          "name": "_longitude",
          "type": "int256"
        },
        {
          "internalType": "address payable",
          "name": "_wallet",
          "type": "address"
        }
      ],
      "name": "addSchool",
      "outputs": [
        {
          "internalType": "uint256",
          "name": "",
          "type": "uint256"
        }
      ],
      "stateMutability": "nonpayable",
      "type": "function"
    },
    {
      "inputs": [
        {
          "internalType": "string",
          "name": "_name",
          "type": "string"
        },
        {
          "internalType": "string",
          "name": "_location",
          "type": "string"
        },
        {
          "internalType": "int256",
          "name": "_latitude",
          "type": "int256"
        },
        {
          "internalType": "int256",
          "name": "_longitude",
          "type": "int256"
        },
        {
          "internalType": "string",
          "name": "_needs",
          "type": "string"
        },
        {
          "internalType": "uint256",
          "name": "_targetAmount",
          "type": "uint256"
        },
        {
          "internalType": "address payable",
          "name": "_wallet",
          "type": "address"
        },
        {
          "internalType": "uint256",
          "name": "_schoolId",
          "type": "uint256"
        }
      ],
      "name": "addStudent",
      "outputs": [
        {
          "internalType": "uint256",
          "name": "",
          "type": "uint256"
        }
      ],
      "stateMutability": "nonpayable",
      "type": "function"
    },
    {
      "inputs": [
        {
          "internalType": "uint256",
          "name": "_donationId",
          "type": "uint256"
        }
      ],
      "name": "disburseFunds",
      "outputs": [],
      "stateMutability": "nonpayable",
      "type": "function"
    },
    {
      "inputs": [
        {
          "internalType": "uint256",
          "name": "_studentId",
          "type": "uint256"
        },
        {
          "internalType": "string",
          "name": "_message",
          "type": "string"
        }
      ],
      "name": "donate",
      "outputs": [],
      "stateMutability": "payable",
      "type": "function"
    },
    {
      "inputs": [],
      "name": "donationCount",
      "outputs": [
        {
          "internalType": "uint256",
          "name": "",
          "type": "uint256"
        }
      ],
      "stateMutability": "view",
      "type": "function"
    },
    {
      "inputs": [
        {
          "internalType": "uint256",
          "name": "",
          "type": "uint256"
        }
      ],
      "name": "donations",
      "outputs": [
        {
          "internalType": "uint256",
          "name": "id",
          "type": "uint256"
        },
        {
          "internalType": "address",
          "name": "donor",
          "type": "address"
        },
        {
          "internalType": "uint256",
          "name": "studentId",
          "type": "uint256"
        },
        {
          "internalType": "uint256",
          "name": "amount",
          "type": "uint256"
        },
        {
          "internalType": "uint256",
          "name": "timestamp",
          "type": "uint256"
        },
        {
          "internalType": "string",
          "name": "message",
          "type": "string"
        },
        {
          "internalType": "bool",
          "name": "disbursed",
          "type": "bool"
        }
      ],
      "stateMutability": "view",
      "type": "function"
    },
    {
      "inputs": [
        {
          "internalType": "address",
          "name": "",
          "type": "address"
        },
        {
          "internalType": "uint256",
          "name": "",
          "type": "uint256"
        }
      ],
      "name": "donorDonations",
      "outputs": [
        {
          "internalType": "uint256",
          "name": "",
          "type": "uint256"
        }
      ],
      "stateMutability": "view",
      "type": "function"
    },
    {
      "inputs": [],
      "name": "getActiveStudents",
      "outputs": [
        {
          "components": [
            {
              "internalType": "uint256",
              "name": "id",
              "type": "uint256"
            },
            {
              "internalType": "string",
              "name": "name",
              "type": "string"
            },
            {
              "internalType": "string",
              "name": "location",
              "type": "string"
            },
            {
              "internalType": "int256",
              "name": "latitude",
              "type": "int256"
            },
            {
              "internalType": "int256",
              "name": "longitude",
              "type": "int256"
            },
            {
              "internalType": "string",
              "name": "needs",
              "type": "string"
            },
            {
              "internalType": "uint256",
              "name": "targetAmount",
              "type": "uint256"
            },
            {
              "internalType": "uint256",
              "name": "receivedAmount",
              "type": "uint256"
            },
            {
              "internalType": "address payable",
              "name": "wallet",
              "type": "address"
            },
            {
              "internalType": "bool",
              "name": "verified",
              "type": "bool"
            },
            {
              "internalType": "bool",
              "name": "active",
              "type": "bool"
            },
            {
              "internalType": "uint256",
              "name": "schoolId",
              "type": "uint256"
            }
          ],
          "internalType": "struct DonationPlatform.Student[]",
          "name": "",
          "type": "tuple[]"
        }
      ],
      "stateMutability": "view",
      "type": "function"
    },
    {
      "inputs": [
        {
          "internalType": "uint256",
          "name": "_donationId",
          "type": "uint256"
        }
      ],
      "name": "getDonation",
      "outputs": [
        {
          "components": [
            {
              "internalType": "uint256",
              "name": "id",
              "type": "uint256"
            },
            {
              "internalType": "address",
              "name": "donor",
              "type": "address"
            },
            {
              "internalType": "uint256",
              "name": "studentId",
              "type": "uint256"
            },
            {
              "internalType": "uint256",
              "name": "amount",
              "type": "uint256"
            },
            {
              "internalType": "uint256",
              "name": "timestamp",
              "type": "uint256"
            },
            {
              "internalType": "string",
              "name": "message",
              "type": "string"
            },
            {
              "internalType": "bool",
              "name": "disbursed",
              "type": "bool"
            }
          ],
          "internalType": "struct DonationPlatform.Donation",
          "name": "",
          "type": "tuple"
        }
      ],
      "stateMutability": "view",
      "type": "function"
    },
    {
      "inputs": [
        {
          "internalType": "address",
          "name": "_donor",
          "type": "address"
        }
      ],
      "name": "getDonorDonations",
      "outputs": [
        {
          "internalType": "uint256[]",
          "name": "",
          "type": "uint256[]"
        }
      ],
      "stateMutability": "view",
      "type": "function"
    },
    {
      "inputs": [
        {
          "internalType": "uint256",
          "name": "_schoolId",
          "type": "uint256"
        }
      ],
      "name": "getSchool",
      "outputs": [
        {
          "components": [
            {
              "internalType": "uint256",
              "name": "id",
              "type": "uint256"
            },
            {
              "internalType": "string",
              "name": "name",
              "type": "string"
            },
            {
              "internalType": "string",
              "name": "location",
              "type": "string"
            },
            {
              "internalType": "int256",
              "name": "latitude",
              "type": "int256"
            },
            {
              "internalType": "int256",
              "name": "longitude",
              "type": "int256"
            },
            {
              "internalType": "address payable",
              "name": "wallet",
              "type": "address"
            },
            {
              "internalType": "uint256",
              "name": "totalReceived",
              "type": "uint256"
            },
            {
              "internalType": "uint256",
              "name": "studentCount",
              "type": "uint256"
            },
            {
              "internalType": "bool",
              "name": "verified",
              "type": "bool"
            }
          ],
          "internalType": "struct DonationPlatform.School",
          "name": "",
          "type": "tuple"
        }
      ],
      "stateMutability": "view",
      "type": "function"
    },
    {
      "inputs": [],
      "name": "getStats",
      "outputs": [
        {
          "internalType": "uint256",
          "name": "_totalDonated",
          "type": "uint256"
        },
        {
          "internalType": "uint256",
          "name": "_donationCount",
          "type": "uint256"
        },
        {
          "internalType": "uint256",
          "name": "_studentCount",
          "type": "uint256"
        },
        {
          "internalType": "uint256",
          "name": "_schoolCount",
          "type": "uint256"
        }
      ],
      "stateMutability": "view",
      "type": "function"
    },
    {
      "inputs": [
        {
          "internalType": "uint256",
          "name": "_studentId",
          "type": "uint256"
        }
      ],
      "name": "getStudent",
      "outputs": [
        {
          "components": [
            {
              "internalType": "uint256",
              "name": "id",
              "type": "uint256"
            },
            {
              "internalType": "string",
              "name": "name",
              "type": "string"
            },
            {
              "internalType": "string",
              "name": "location",
              "type": "string"
            },
            {
              "internalType": "int256",
              "name": "latitude",
              "type": "int256"
            },
            {
              "internalType": "int256",
              "name": "longitude",
              "type": "int256"
            },
            {
              "internalType": "string",
              "name": "needs",
              "type": "string"
            },
            {
              "internalType": "uint256",
              "name": "targetAmount",
              "type": "uint256"
            },
            {
              "internalType": "uint256",
              "name": "receivedAmount",
              "type": "uint256"
            },
            {
              "internalType": "address payable",
              "name": "wallet",
              "type": "address"
            },
            {
              "internalType": "bool",
              "name": "verified",
              "type": "bool"
            },
            {
              "internalType": "bool",
              "name": "active",
              "type": "bool"
            },
            {
              "internalType": "uint256",
              "name": "schoolId",
              "type": "uint256"
            }
          ],
          "internalType": "struct DonationPlatform.Student",
          "name": "",
          "type": "tuple"
        }
      ],
      "stateMutability": "view",
      "type": "function"
    },
    {
      "inputs": [
        {
          "internalType": "uint256",
          "name": "_studentId",
          "type": "uint256"
        }
      ],
      "name": "getStudentResources",
      "outputs": [
        {
          "components": [
            {
              "internalType": "uint256",
              "name": "studentId",
              "type": "uint256"
            },
            {
              "internalType": "string",
              "name": "resourceType",
              "type": "string"
            },
            {
              "internalType": "uint256",
              "name": "beforeCount",
              "type": "uint256"
            },
            {
              "internalType": "uint256",
              "name": "afterCount",
              "type": "uint256"
            },
            {
              "internalType": "uint256",
              "name": "timestamp",
              "type": "uint256"
            },
            {
              "internalType": "string",
              "name": "proofIPFSHash",
              "type": "string"
            }
          ],
          "internalType": "struct DonationPlatform.ResourceTracker[]",
          "name": "",
          "type": "tuple[]"
        }
      ],
      "stateMutability": "view",
      "type": "function"
    },
    {
      "inputs": [],
      "name": "owner",
      "outputs": [
        {
          "internalType": "address",
          "name": "",
          "type": "address"
        }
      ],
      "stateMutability": "view",
      "type": "function"
    },
    {
      "inputs": [],
      "name": "renounceOwnership",
      "outputs": [],
      "stateMutability": "nonpayable",
      "type": "function"
    },
    {
      "inputs": [],
      "name": "resourceTrackerCount",
      "outputs": [
        {
          "internalType": "uint256",
          "name": "",
          "type": "uint256"
        }
      ],
      "stateMutability": "view",
      "type": "function"
    },
    {
      "inputs": [],
      "name": "schoolCount",
      "outputs": [
        {
          "internalType": "uint256",
          "name": "",
          "type": "uint256"
        }
      ],
      "stateMutability": "view",
      "type": "function"
    },
    {
      "inputs": [
        {
          "internalType": "uint256",
          "name": "",
          "type": "uint256"
        }
      ],
      "name": "schools",
      "outputs": [
        {
          "internalType": "uint256",
          "name": "id",
          "type": "uint256"
        },
        {
          "internalType": "string",
          "name": "name",
          "type": "string"
        },
        {
          "internalType": "string",
          "name": "location",
          "type": "string"
        },
        {
          "internalType": "int256",
          "name": "latitude",
          "type": "int256"
        },
        {
          "internalType": "int256",
          "name": "longitude",
          "type": "int256"
        },
        {
          "internalType": "address payable",
          "name": "wallet",
          "type": "address"
        },
        {
          "internalType": "uint256",
          "name": "totalReceived",
          "type": "uint256"
        },
        {
          "internalType": "uint256",
          "name": "studentCount",
          "type": "uint256"
        },
        {
          "internalType": "bool",
          "name": "verified",
          "type": "bool"
        }
      ],
      "stateMutability": "view",
      "type": "function"
    },
    {
      "inputs": [],
      "name": "studentCount",
      "outputs": [
        {
          "internalType": "uint256",
          "name": "",
          "type": "uint256"
        }
      ],
      "stateMutability": "view",
      "type": "function"
    },
    {
      "inputs": [
        {
          "internalType": "uint256",
          "name": "",
          "type": "uint256"
        },
        {
          "internalType": "uint256",
          "name": "",
          "type": "uint256"
        }
      ],
      "name": "studentResources",
      "outputs": [
        {
          "internalType": "uint256",
          "name": "studentId",
          "type": "uint256"
        },
        {
          "internalType": "string",
          "name": "resourceType",
          "type": "string"
        },
        {
          "internalType": "uint256",
          "name": "beforeCount",
          "type": "uint256"
        },
        {
          "internalType": "uint256",
          "name": "afterCount",
          "type": "uint256"
        },
        {
          "internalType": "uint256",
          "name": "timestamp",
          "type": "uint256"
        },
        {
          "internalType": "string",
          "name": "proofIPFSHash",
          "type": "string"
        }
      ],
      "stateMutability": "view",
      "type": "function"
    },
    {
      "inputs": [
        {
          "internalType": "uint256",
          "name": "",
          "type": "uint256"
        }
      ],
      "name": "students",
      "outputs": [
        {
          "internalType": "uint256",
          "name": "id",
          "type": "uint256"
        },
        {
          "internalType": "string",
          "name": "name",
          "type": "string"
        },
        {
          "internalType": "string",
          "name": "location",
          "type": "string"
        },
        {
          "internalType": "int256",
          "name": "latitude",
          "type": "int256"
        },
        {
          "internalType": "int256",
          "name": "longitude",
          "type": "int256"
        },
        {
          "internalType": "string",
          "name": "needs",
          "type": "string"
        },
        {
          "internalType": "uint256",
          "name": "targetAmount",
          "type": "uint256"
        },
        {
          "internalType": "uint256",
          "name": "receivedAmount",
          "type": "uint256"
        },
        {
          "internalType": "address payable",
          "name": "wallet",
          "type": "address"
        },
        {
          "internalType": "bool",
          "name": "verified",
          "type": "bool"
        },
        {
          "internalType": "bool",
          "name": "active",
          "type": "bool"
        },
        {
          "internalType": "uint256",
          "name": "schoolId",
          "type": "uint256"
        }
      ],
      "stateMutability": "view",
      "type": "function"
    },
    {
      "inputs": [],
      "name": "totalDonated",
      "outputs": [
        {
          "internalType": "uint256",
          "name": "",
          "type": "uint256"
        }
      ],
      "stateMutability": "view",
      "type": "function"
    },
    {
      "inputs": [
        {
          "internalType": "uint256",
          "name": "_studentId",
          "type": "uint256"
        },
        {
          "internalType": "string",
          "name": "_resourceType",
          "type": "string"
        },
        {
          "internalType": "uint256",
          "name": "_beforeCount",
          "type": "uint256"
        },
        {
          "internalType": "uint256",
          "name": "_afterCount",
          "type": "uint256"
        },
        {
          "internalType": "string",
          "name": "_proofIPFSHash",
          "type": "string"
        }
      ],
      "name": "trackResource",
      "outputs": [],
      "stateMutability": "nonpayable",
      "type": "function"
    },
    {
      "inputs": [
        {
          "internalType": "address",
          "name": "newOwner",
          "type": "address"
        }
      ],
      "name": "transferOwnership",
      "outputs": [],
      "stateMutability": "nonpayable",
      "type": "function"
    }
  ],
  "bytecode": "0x60806040523480156200001157600080fd5b50600160005533806200003e57604051631e4fbdf760e01b81526000600482015260240160405180910390fd5b620000498162000050565b50620000a2565b600180546001600160a01b038381166001600160a01b0319831681179093556040519116919082907f8be0079c531659141344cd1fd0a4f28419497f9722a3daafe3b4186f6b6457e090600090a35050565b612bd580620000b26000396000f3fe6080604052600436106101655760003560e01c80637be26277116100d1578063cc212a481161008a578063ef07a81f11610064578063ef07a81f14610459578063f1b7b55e14610486578063f2fde38b146104b8578063f8626af8146104d857600080fd5b8063cc212a48146103f6578063d38e7ea914610416578063e581f9ee1461044357600080fd5b80637be26277146103205780637edfb05c146103425780638d59d1f1146103625780638da5cb5b14610375578063b17aeb5f1461039d578063c59d4847146103bd57600080fd5b80634395e1bf116101235780634395e1bf1461023a5780634d21c3a71461025a578063642f9163146102875780636dc53ad5146102b4578063715018a6146102d6578063719c0d04146102eb57600080fd5b8062b370441461016a57806306ead22e1461019357806315a46406146101cb57806321298488146101f857806328d888901461020e5780632abfab4d14610224575b600080fd5b34801561017657600080fd5b5061018060055481565b6040519081526020015b60405180910390f35b34801561019f57600080fd5b506101b36101ae3660046120ec565b61050b565b60405161018a9c9b9a9998979695949392919061214b565b3480156101d757600080fd5b506101eb6101e63660046121f4565b610711565b60405161018a9190612218565b34801561020457600080fd5b5061018060065481565b34801561021a57600080fd5b5061018060045481565b34801561023057600080fd5b5061018060035481565b34801561024657600080fd5b5061018061025536600461225c565b61077d565b34801561026657600080fd5b5061027a6102753660046120ec565b6107ae565b60405161018a9190612288565b34801561029357600080fd5b506102a76102a23660046120ec565b61096c565b60405161018a9190612402565b3480156102c057600080fd5b506102d46102cf3660046124b8565b610bc2565b005b3480156102e257600080fd5b506102d4610d1a565b3480156102f757600080fd5b5061030b6103063660046120ec565b610d2e565b60405161018a99989796959493929190612539565b34801561032c57600080fd5b50610335610e95565b60405161018a91906125a7565b34801561034e57600080fd5b5061018061035d366004612619565b6111fe565b6102d46103703660046126d9565b61142f565b34801561038157600080fd5b506001546040516001600160a01b03909116815260200161018a565b3480156103a957600080fd5b506101806103b8366004612720565b6116e7565b3480156103c957600080fd5b5060055460035460025460045460408051948552602085019390935291830152606082015260800161018a565b34801561040257600080fd5b506102d46104113660046120ec565b611849565b34801561042257600080fd5b506104366104313660046120ec565b611a16565b60405161018a91906127ac565b34801561044f57600080fd5b5061018060025481565b34801561046557600080fd5b506104796104743660046120ec565b611c0e565b60405161018a9190612859565b34801561049257600080fd5b506104a66104a13660046128c8565b611d5d565b60405161018a969594939291906128ea565b3480156104c457600080fd5b506102d46104d33660046121f4565b611ec6565b3480156104e457600080fd5b506104f86104f33660046120ec565b611f01565b60405161018a9796959493929190612934565b6007602052600090815260409020805460018201805491929161052d90612983565b80601f016020809104026020016040519081016040528092919081815260200182805461055990612983565b80156105a65780601f1061057b576101008083540402835291602001916105a6565b820191906000526020600020905b81548152906001019060200180831161058957829003601f168201915b5050505050908060020180546105bb90612983565b80601f01602080910402602001604051908101604052809291908181526020018280546105e790612983565b80156106345780601f1061060957610100808354040283529160200191610634565b820191906000526020600020905b81548152906001019060200180831161061757829003601f168201915b50505050509080600301549080600401549080600501805461065590612983565b80601f016020809104026020016040519081016040528092919081815260200182805461068190612983565b80156106ce5780601f106106a3576101008083540402835291602001916106ce565b820191906000526020600020905b8154815290600101906020018083116106b157829003601f168201915b505050600684015460078501546008860154600990960154949591949093506001600160a01b038216925060ff600160a01b8304811692600160a81b900416908c565b6001600160a01b0381166000908152600a602090815260409182902080548351818402810184019094528084526060939283018282801561077157602002820191906000526020600020905b81548152602001906001019080831161075d575b50505050509050919050565b600a602052816000526040600020818154811061079957600080fd5b90600052602060002001600091509150505481565b6060600b6000838152602001908152602001600020805480602002602001604051908101604052809291908181526020016000905b8282101561096157838290600052602060002090600602016040518060c00160405290816000820154815260200160018201805461082090612983565b80601f016020809104026020016040519081016040528092919081815260200182805461084c90612983565b80156108995780601f1061086e57610100808354040283529160200191610899565b820191906000526020600020905b81548152906001019060200180831161087c57829003601f168201915b505050505081526020016002820154815260200160038201548152602001600482015481526020016005820180546108d090612983565b80601f01602080910402602001604051908101604052809291908181526020018280546108fc90612983565b80156109495780601f1061091e57610100808354040283529160200191610949565b820191906000526020600020905b81548152906001019060200180831161092c57829003601f168201915b505050505081525050815260200190600101906107e3565b505050509050919050565b61097461207e565b6007600083815260200190815260200160002060405180610180016040529081600082015481526020016001820180546109ad90612983565b80601f01602080910402602001604051908101604052809291908181526020018280546109d990612983565b8015610a265780601f106109fb57610100808354040283529160200191610a26565b820191906000526020600020905b815481529060010190602001808311610a0957829003601f168201915b50505050508152602001600282018054610a3f90612983565b80601f0160208091040260200160405190810160405280929190818152602001828054610a6b90612983565b8015610ab85780601f10610a8d57610100808354040283529160200191610ab8565b820191906000526020600020905b815481529060010190602001808311610a9b57829003601f168201915b505050505081526020016003820154815260200160048201548152602001600582018054610ae590612983565b80601f0160208091040260200160405190810160405280929190818152602001828054610b1190612983565b8015610b5e5780601f10610b3357610100808354040283529160200191610b5e565b820191906000526020600020905b815481529060010190602001808311610b4157829003601f168201915b5050509183525050600682015460208201526007820154604082015260088201546001600160a01b038116606083015260ff600160a01b8204811615156080840152600160a81b90910416151560a082015260099091015460c09091015292915050565b610bca611fd5565b600085118015610bdc57506002548511155b610c225760405162461bcd60e51b8152602060048201526012602482015271125b9d985b1a59081cdd1d59195b9d08125160721b60448201526064015b60405180910390fd5b6040805160c08101825286815260208082018781528284018790526060830186905242608084015260a083018590526000898152600b8352938420805460018181018355918652929094208351600690930201918255519192839290820190610c8b9082612a0c565b5060408201516002820155606082015160038201556080820151600482015560a08201516005820190610cbe9082612a0c565b50506006805491506000610cd183612ae2565b9190505550857f4a59427cadfae6cc22834b5da11c98485a47adae81bbfdba29488cb7ce71cac4868686604051610d0a93929190612afb565b60405180910390a2505050505050565b610d22611fd5565b610d2c6000612002565b565b60096020526000908152604090208054600182018054919291610d5090612983565b80601f0160208091040260200160405190810160405280929190818152602001828054610d7c90612983565b8015610dc95780601f10610d9e57610100808354040283529160200191610dc9565b820191906000526020600020905b815481529060010190602001808311610dac57829003601f168201915b505050505090806002018054610dde90612983565b80601f0160208091040260200160405190810160405280929190818152602001828054610e0a90612983565b8015610e575780601f10610e2c57610100808354040283529160200191610e57565b820191906000526020600020905b815481529060010190602001808311610e3a57829003601f168201915b50505060038401546004850154600586015460068701546007880154600890980154969793969295506001600160a01b039091169350919060ff1689565b6060600060015b6002548111610ee657600081815260076020526040902060080154600160a81b900460ff1615610ed45781610ed081612ae2565b9250505b80610ede81612ae2565b915050610e9c565b5060008167ffffffffffffffff811115610f0257610f02612415565b604051908082528060200260200182016040528015610f3b57816020015b610f2861207e565b815260200190600190039081610f205790505b509050600060015b60025481116111f557600081815260076020526040902060080154600160a81b900460ff16156111e357600760008281526020019081526020016000206040518061018001604052908160008201548152602001600182018054610fa690612983565b80601f0160208091040260200160405190810160405280929190818152602001828054610fd290612983565b801561101f5780601f10610ff45761010080835404028352916020019161101f565b820191906000526020600020905b81548152906001019060200180831161100257829003601f168201915b5050505050815260200160028201805461103890612983565b80601f016020809104026020016040519081016040528092919081815260200182805461106490612983565b80156110b15780601f10611086576101008083540402835291602001916110b1565b820191906000526020600020905b81548152906001019060200180831161109457829003601f168201915b5050505050815260200160038201548152602001600482015481526020016005820180546110de90612983565b80601f016020809104026020016040519081016040528092919081815260200182805461110a90612983565b80156111575780601f1061112c57610100808354040283529160200191611157565b820191906000526020600020905b81548152906001019060200180831161113a57829003601f168201915b5050509183525050600682015460208201526007820154604082015260088201546001600160a01b038116606083015260ff600160a01b8204811615156080840152600160a81b90910416151560a082015260099091015460c09091015283518490849081106111c9576111c9612b20565b602002602001018190525081806111df90612ae2565b9250505b806111ed81612ae2565b915050610f43565b50909392505050565b6000611208611fd5565b600454821115801561121a5750600082115b61125a5760405162461bcd60e51b8152602060048201526011602482015270125b9d985b1a59081cd8da1bdbdb081251607a1b6044820152606401610c19565b6002805490600061126a83612ae2565b919050555060405180610180016040528060025481526020018a815260200189815260200188815260200187815260200186815260200185815260200160008152602001846001600160a01b03168152602001600115158152602001600115158152602001838152506007600060025481526020019081526020016000206000820151816000015560208201518160010190816113079190612a0c565b506040820151600282019061131c9082612a0c565b50606082015160038201556080820151600482015560a082015160058201906113459082612a0c565b5060c0820151600682015560e08201516007808301919091556101008301516008830180546101208601516101408701511515600160a81b0260ff60a81b19911515600160a01b026001600160a81b03199093166001600160a01b03909516949094179190911716919091179055610160909201516009918201556000848152602091909152604081209091018054916113de83612ae2565b91905055506002547ffafb7311fc57ca8a55073f63725e888b4250c799d77ae873970d65ac08c5917a8a86604051611417929190612b36565b60405180910390a25060025498975050505050505050565b611437612054565b60008211801561144957506002548211155b61148a5760405162461bcd60e51b8152602060048201526012602482015271125b9d985b1a59081cdd1d59195b9d08125160721b6044820152606401610c19565b600034116114da5760405162461bcd60e51b815260206004820152601f60248201527f446f6e6174696f6e206d7573742062652067726561746572207468616e2030006044820152606401610c19565b600082815260076020526040902060080154600160a81b900460ff1661153a5760405162461bcd60e51b815260206004820152601560248201527453747564656e74206973206e6f742061637469766560581b6044820152606401610c19565b6003805490600061154a83612ae2565b90915550506040805160e081018252600380548083523360208085019182528486018881523460608701908152426080880190815260a088018a8152600060c08a018190529687526008909452979094208651815592516001840180546001600160a01b0319166001600160a01b0390921691909117905551600283015591519281019290925592516004820155915190919060058201906115ec9082612a0c565b5060c091909101516006909101805460ff191691151591909117905560008281526007602081905260408220018054349290611629908490612b58565b9250508190555034600560008282546116429190612b58565b9091555050336000908152600a602090815260408083206003548154600181018355918552838520909101558483526007825280832060099081015480855292528220600601805491923492611699908490612b58565b9091555050600354604051348152849133917f3dbea1b4ce5f95137fdcac9b1d685825c3d70ace830df1ca5a181d3887add4109060200160405180910390a4506116e36001600055565b5050565b60006116f1611fd5565b6004805490600061170183612ae2565b9091555050604080516101208101825260045480825260208083018a81528385018a905260608401899052608084018890526001600160a01b03871660a0850152600060c0850181905260e085018190526001610100860181905293815260099092529390208251815592519192919082019061177e9082612a0c565b50604082015160028201906117939082612a0c565b5060608201516003820155608082015160048083019190915560a08301516005830180546001600160a01b0319166001600160a01b0390921691909117905560c0830151600683015560e08301516007830155610100909201516008909101805460ff1916911515919091179055546040517f84d7d24ad8cfbe4b3700ecc683c31b0ce5a753dab48b100e3aaa96e72c017e74906118349089908990612b71565b60405180910390a25060045495945050505050565b611851612054565b611859611fd5565b60008111801561186b57506003548111155b6118ad5760405162461bcd60e51b8152602060048201526013602482015272125b9d985b1a5908191bdb985d1a5bdb881251606a1b6044820152606401610c19565b60008181526008602052604090206006015460ff16156119035760405162461bcd60e51b8152602060048201526011602482015270105b1c9958591e48191a5cd89d5c9cd959607a1b6044820152606401610c19565b600081815260086020818152604080842060028101548552600790925290922090810154600160a81b900460ff166119755760405162461bcd60e51b815260206004820152601560248201527453747564656e74206973206e6f742061637469766560581b6044820152606401610c19565b60068201805460ff19166001179055600881015460038301546040516001600160a01b039092169181156108fc0291906000818181858888f193505050501580156119c4573d6000803e3d6000fd5b5081600201547f353824989cda192757c4489ea4d5d30fe1801a232ed47c3b79f663b5cbe2e47583600301546040516119ff91815260200190565b60405180910390a25050611a136001600055565b50565b611a70604051806101200160405280600081526020016060815260200160608152602001600081526020016000815260200160006001600160a01b0316815260200160008152602001600081526020016000151581525090565b600960008381526020019081526020016000206040518061012001604052908160008201548152602001600182018054611aa990612983565b80601f0160208091040260200160405190810160405280929190818152602001828054611ad590612983565b8015611b225780601f10611af757610100808354040283529160200191611b22565b820191906000526020600020905b815481529060010190602001808311611b0557829003601f168201915b50505050508152602001600282018054611b3b90612983565b80601f0160208091040260200160405190810160405280929190818152602001828054611b6790612983565b8015611bb45780601f10611b8957610100808354040283529160200191611bb4565b820191906000526020600020905b815481529060010190602001808311611b9757829003601f168201915b5050509183525050600382015460208201526004820154604082015260058201546001600160a01b0316606082015260068201546080820152600782015460a082015260089091015460ff16151560c09091015292915050565b611c596040518060e001604052806000815260200160006001600160a01b03168152602001600081526020016000815260200160008152602001606081526020016000151581525090565b600082815260086020908152604091829020825160e0810184528154815260018201546001600160a01b031692810192909252600281015492820192909252600382015460608201526004820154608082015260058201805491929160a084019190611cc490612983565b80601f0160208091040260200160405190810160405280929190818152602001828054611cf090612983565b8015611d3d5780601f10611d1257610100808354040283529160200191611d3d565b820191906000526020600020905b815481529060010190602001808311611d2057829003601f168201915b50505091835250506006919091015460ff16151560209091015292915050565b600b6020528160005260406000208181548110611d7957600080fd5b906000526020600020906006020160009150915050806000015490806001018054611da390612983565b80601f0160208091040260200160405190810160405280929190818152602001828054611dcf90612983565b8015611e1c5780601f10611df157610100808354040283529160200191611e1c565b820191906000526020600020905b815481529060010190602001808311611dff57829003601f168201915b505050505090806002015490806003015490806004015490806005018054611e4390612983565b80601f0160208091040260200160405190810160405280929190818152602001828054611e6f90612983565b8015611ebc5780601f10611e9157610100808354040283529160200191611ebc565b820191906000526020600020905b815481529060010190602001808311611e9f57829003601f168201915b5050505050905086565b611ece611fd5565b6001600160a01b038116611ef857604051631e4fbdf760e01b815260006004820152602401610c19565b611a1381612002565b60086020526000908152604090208054600182015460028301546003840154600485015460058601805495966001600160a01b039095169593949293919291611f4990612983565b80601f0160208091040260200160405190810160405280929190818152602001828054611f7590612983565b8015611fc25780601f10611f9757610100808354040283529160200191611fc2565b820191906000526020600020905b815481529060010190602001808311611fa557829003601f168201915b5050506006909301549192505060ff1687565b6001546001600160a01b03163314610d2c5760405163118cdaa760e01b8152336004820152602401610c19565b600180546001600160a01b038381166001600160a01b0319831681179093556040519116919082907f8be0079c531659141344cd1fd0a4f28419497f9722a3daafe3b4186f6b6457e090600090a35050565b60026000540361207757604051633ee5aeb560e01b815260040160405180910390fd5b6002600055565b604051806101800160405280600081526020016060815260200160608152602001600081526020016000815260200160608152602001600081526020016000815260200160006001600160a01b03168152602001600015158152602001600015158152602001600081525090565b6000602082840312156120fe57600080fd5b5035919050565b6000815180845260005b8181101561212b5760208185018101518683018201520161210f565b506000602082860101526020601f19601f83011685010191505092915050565b60006101808e83528060208401526121658184018f612105565b90508281036040840152612179818e612105565b90508b60608401528a608084015282810360a0840152612199818b612105565b60c0840199909952505060e08101959095526001600160a01b03939093166101008501529015156101208401521515610140830152610160909101529695505050505050565b6001600160a01b0381168114611a1357600080fd5b60006020828403121561220657600080fd5b8135612211816121df565b9392505050565b6020808252825182820181905260009190848201906040850190845b8181101561225057835183529284019291840191600101612234565b50909695505050505050565b6000806040838503121561226f57600080fd5b823561227a816121df565b946020939093013593505050565b60006020808301818452808551808352604092508286019150828160051b87010184880160005b8381101561232b57603f19898403018552815160c08151855288820151818a8701526122dd82870182612105565b838a0151878b0152606080850151908801526080808501519088015260a09384015187820394880194909452915061231790508183612105565b9689019694505050908601906001016122af565b509098975050505050505050565b600061018082518452602083015181602086015261235982860182612105565b915050604083015184820360408601526123738282612105565b915050606083015160608501526080830151608085015260a083015184820360a08601526123a18282612105565b91505060c083015160c085015260e083015160e0850152610100808401516123d3828701826001600160a01b03169052565b505061012083810151151590850152610140808401511515908501526101609283015192909301919091525090565b6020815260006122116020830184612339565b634e487b7160e01b600052604160045260246000fd5b600082601f83011261243c57600080fd5b813567ffffffffffffffff8082111561245757612457612415565b604051601f8301601f19908116603f0116810190828211818310171561247f5761247f612415565b8160405283815286602085880101111561249857600080fd5b836020870160208301376000602085830101528094505050505092915050565b600080600080600060a086880312156124d057600080fd5b85359450602086013567ffffffffffffffff808211156124ef57600080fd5b6124fb89838a0161242b565b95506040880135945060608801359350608088013591508082111561251f57600080fd5b5061252c8882890161242b565b9150509295509295909350565b60006101208b83528060208401526125538184018c612105565b90508281036040840152612567818b612105565b6060840199909952505060808101959095526001600160a01b039390931660a085015260c084019190915260e08301521515610100909101529392505050565b6000602080830181845280855180835260408601915060408160051b870101925083870160005b828110156125fc57603f198886030184526125ea858351612339565b945092850192908501906001016125ce565b5092979650505050505050565b8035612614816121df565b919050565b600080600080600080600080610100898b03121561263657600080fd5b883567ffffffffffffffff8082111561264e57600080fd5b61265a8c838d0161242b565b995060208b013591508082111561267057600080fd5b61267c8c838d0161242b565b985060408b0135975060608b0135965060808b01359150808211156126a057600080fd5b506126ad8b828c0161242b565b94505060a089013592506126c360c08a01612609565b915060e089013590509295985092959890939650565b600080604083850312156126ec57600080fd5b82359150602083013567ffffffffffffffff81111561270a57600080fd5b6127168582860161242b565b9150509250929050565b600080600080600060a0868803121561273857600080fd5b853567ffffffffffffffff8082111561275057600080fd5b61275c89838a0161242b565b9650602088013591508082111561277257600080fd5b5061277f8882890161242b565b9450506040860135925060608601359150608086013561279e816121df565b809150509295509295909350565b6020815281516020820152600060208301516101208060408501526127d5610140850183612105565b91506040850151601f198584030160608601526127f28382612105565b92505060608501516080850152608085015160a085015260a085015161282360c08601826001600160a01b03169052565b5060c085015160e085015260e085015161010081818701528087015191505061284f8286018215159052565b5090949350505050565b602081528151602082015260018060a01b0360208301511660408201526040820151606082015260608201516080820152608082015160a0820152600060a083015160e060c08401526128b0610100840182612105565b905060c0840151151560e08401528091505092915050565b600080604083850312156128db57600080fd5b50508035926020909101359150565b86815260c06020820152600061290360c0830188612105565b86604084015285606084015284608084015282810360a08401526129278185612105565b9998505050505050505050565b87815260018060a01b038716602082015285604082015284606082015283608082015260e060a0820152600061296d60e0830185612105565b905082151560c083015298975050505050505050565b600181811c9082168061299757607f821691505b6020821081036129b757634e487b7160e01b600052602260045260246000fd5b50919050565b601f821115612a0757600081815260208120601f850160051c810160208610156129e45750805b601f850160051c820191505b81811015612a03578281556001016129f0565b5050505b505050565b815167ffffffffffffffff811115612a2657612a26612415565b612a3a81612a348454612983565b846129bd565b602080601f831160018114612a6f5760008415612a575750858301515b600019600386901b1c1916600185901b178555612a03565b600085815260208120601f198616915b82811015612a9e57888601518255948401946001909101908401612a7f565b5085821015612abc5787850151600019600388901b60f8161c191681555b5050505050600190811b01905550565b634e487b7160e01b600052601160045260246000fd5b600060018201612af457612af4612acc565b5060010190565b606081526000612b0e6060830186612105565b60208301949094525060400152919050565b634e487b7160e01b600052603260045260246000fd5b604081526000612b496040830185612105565b90508260208301529392505050565b80820180821115612b6b57612b6b612acc565b92915050565b604081526000612b846040830185612105565b8281036020840152612b968185612105565b9594505050505056fea26469706673582212202b671f6b0fed43f6f3be56f94c954f29c135b86600a9fdf693fcff46dfb4cec364736f6c63430008140033",
  "linkReferences": {},
  "deployedLinkReferences": {}
}