{
  "_format": "hh-sol-artifact-1",
  "contractName": "SchoolPool",
  "sourceName": "contracts/SchoolPool.sol",
  "abi": [
    {
      "inputs": [],
      "stateMutability": "nonpayable",
      "type": "constructor"
    },
    {
      "inputs": [
        {
          "internalType": "address",
          "name": "owner",
          "type": "address"
        }
      ],
      "name": "OwnableInvalidOwner",
      "type": "error"
    },
    {
      "inputs": [
        {
          "internalType": "address",
          "name": "account",
          "type": "address"
        }
      ],
      "name": "OwnableUnauthorizedAccount",
      "type": "error"
    },
    {
      "inputs": [],
      "name": "ReentrancyGuardReentrantCall",
      "type": "error"
    },
    {
      "anonymous": false,
      "inputs": [
        {
          "indexed": true,
          "internalType": "uint256",
          "name": "poolId",
          "type": "uint256"
        },
        {
          "indexed": true,
          "internalType": "address",
          "name": "contributor",
          "type": "address"
        },
        {
          "indexed": false,
          "internalType": "uint256",
          "name": "amount",
          "type": "uint256"
        }
      ],
      "name": "ContributionMade",
      "type": "event"
    },
    {
      "anonymous": false,
      "inputs": [
        {
          "indexed": true,
          "internalType": "uint256",
          "name": "poolId",
          "type": "uint256"
        },
        {
          "indexed": true,
          "internalType": "address",
          "name": "recipient",
          "type": "address"
        },
        {
          "indexed": false,
          "internalType": "uint256",
          "name": "amount",
          "type": "uint256"
        }
      ],
      "name": "FundsWithdrawn",
      "type": "event"
    },
    {
      "anonymous": false,
      "inputs": [
        {
          "indexed": true,
          "internalType": "address",
          "name": "previousOwner",
          "type": "address"
        },
        {
          "indexed": true,
          "internalType": "address",
          "name": "newOwner",
          "type": "address"
        }
      ],
      "name": "OwnershipTransferred",
      "type": "event"
    },
    {
      "anonymous": false,
      "inputs": [
        {
          "indexed": true,
          "internalType": "uint256",
          "name": "poolId",
          "type": "uint256"
        },
        {
          "indexed": false,
          "internalType": "uint256",
          "name": "totalAmount",
          "type": "uint256"
        }
      ],
      "name": "PoolCompleted",
      "type": "event"
    },
    {
      "anonymous": false,
      "inputs": [
        {
          "indexed": true,
          "internalType": "uint256",
          "name": "poolId",
          "type": "uint256"
        },
        {
          "indexed": true,
          "internalType": "uint256",
          "name": "schoolId",
          "type": "uint256"
        },
        {
          "indexed": false,
          "internalType": "string",
          "name": "goal",
          "type": "string"
        },
        {
          "indexed": false,
          "internalType": "uint256",
          "name": "targetAmount",
          "type": "uint256"
        },
        {
          "indexed": false,
          "internalType": "uint256",
          "name": "deadline",
          "type": "uint256"
        }
      ],
      "name": "PoolCreated",
      "type": "event"
    },
    {
      "inputs": [
        {
          "internalType": "uint256",
          "name": "_poolId",
          "type": "uint256"
        }
      ],
      "name": "contribute",
      "outputs": [],
      "stateMutability": "payable",
      "type": "function"
    },
    {
      "inputs": [
        {
          "internalType": "uint256",
          "name": "_schoolId",
          "type": "uint256"
        },
        {
          "internalType": "string",
          "name": "_schoolName",
          "type": "string"
        },
        {
          "internalType": "string",
          "name": "_goal",
          "type": "string"
        },
        {
          "internalType": "uint256",
          "name": "_targetAmount",
          "type": "uint256"
        },
        {
          "internalType": "uint256",
          "name": "_durationDays",
          "type": "uint256"
        }
      ],
      "name": "createPool",
      "outputs": [
        {
          "internalType": "uint256",
          "name": "",
          "type": "uint256"
        }
      ],
      "stateMutability": "nonpayable",
      "type": "function"
    },
    {
      "inputs": [],
      "name": "getActivePools",
      "outputs": [
        {
          "components": [
            {
              "internalType": "uint256",
              "name": "id",
              "type": "uint256"
            },
            {
              "internalType": "uint256",
              "name": "schoolId",
              "type": "uint256"
            },
            {
              "internalType": "string",
              "name": "schoolName",
              "type": "string"
            },
            {
              "internalType": "string",
              "name": "goal",
              "type": "string"
            },
            {
              "internalType": "uint256",
              "name": "targetAmount",
              "type": "uint256"
            },
            {
              "internalType": "uint256",
              "name": "currentAmount",
              "type": "uint256"
            },
            {
              "internalType": "uint256",
              "name": "deadline",
              "type": "uint256"
            },
            {
              "internalType": "bool",
              "name": "active",
              "type": "bool"
            },
            {
              "internalType": "bool",
              "name": "completed",
              "type": "bool"
            },
            {
              "internalType": "uint256",
              "name": "contributorCount",
              "type": "uint256"
            }
          ],
          "internalType": "struct SchoolPool.PoolInfo[]",
          "name": "",
          "type": "tuple[]"
        }
      ],
      "stateMutability": "view",
      "type": "function"
    },
    {
      "inputs": [
        {
          "internalType": "uint256",
          "name": "_poolId",
          "type": "uint256"
        },
        {
          "internalType": "address",
          "name": "_contributor",
          "type": "address"
        }
      ],
      "name": "getContribution",
      "outputs": [
        {
          "internalType": "uint256",
          "name": "",
          "type": "uint256"
        }
      ],
      "stateMutability": "view",
      "type": "function"
    },
    {
      "inputs": [
        {
          "internalType": "uint256",
          "name": "_poolId",
          "type": "uint256"
        }
      ],
      "name": "getPoolContributors",
      "outputs": [
        {
          "internalType": "address[]",
          "name": "",
          "type": "address[]"
        }
      ],
      "stateMutability": "view",
      "type": "function"
    },
    {
      "inputs": [
        {
          "internalType": "uint256",
          "name": "_poolId",
          "type": "uint256"
        }
      ],
      "name": "getPoolInfo",
      "outputs": [
        {
          "components": [
            {
              "internalType": "uint256",
              "name": "id",
              "type": "uint256"
            },
            {
              "internalType": "uint256",
              "name": "schoolId",
              "type": "uint256"
            },
            {
              "internalType": "string",
              "name": "schoolName",
              "type": "string"
            },
            {
              "internalType": "string",
              "name": "goal",
              "type": "string"
            },
            {
              "internalType": "uint256",
              "name": "targetAmount",
              "type": "uint256"
            },
            {
              "internalType": "uint256",
              "name": "currentAmount",
              "type": "uint256"
            },
            {
              "internalType": "uint256",
              "name": "deadline",
              "type": "uint256"
            },
            {
              "internalType": "bool",
              "name": "active",
              "type": "bool"
            },
            {
              "internalType": "bool",
              "name": "completed",
              "type": "bool"
            },
            {
              "internalType": "uint256",
              "name": "contributorCount",
              "type": "uint256"
            }
          ],
          "internalType": "struct SchoolPool.PoolInfo",
          "name": "",
          "type": "tuple"
        }
      ],
      "stateMutability": "view",
      "type": "function"
    },
    {
      "inputs": [],
      "name": "owner",
      "outputs": [
        {
          "internalType": "address",
          "name": "",
          "type": "address"
        }
      ],
      "stateMutability": "view",
      "type": "function"
    },
    {
      "inputs": [
        {
          "internalType": "uint256",
          "name": "",
          "type": "uint256"
        },
        {
          "internalType": "address",
          "name": "",
          "type": "address"
        }
      ],
      "name": "poolContributions",
      "outputs": [
        {
          "internalType": "uint256",
          "name": "",
          "type": "uint256"
        }
      ],
      "stateMutability": "view",
      "type": "function"
    },
    {
      "inputs": [
        {
          "internalType": "uint256",
          "name": "",
          "type": "uint256"
        },
        {
          "internalType": "uint256",
          "name": "",
          "type": "uint256"
        }
      ],
      "name": "poolContributors",
      "outputs": [
        {
          "internalType": "address",
          "name": "",
          "type": "address"
        }
      ],
      "stateMutability": "view",
      "type": "function"
    },
    {
      "inputs": [],
      "name": "poolCount",
      "outputs": [
        {
          "internalType": "uint256",
          "name": "",
          "type": "uint256"
        }
      ],
      "stateMutability": "view",
      "type": "function"
    },
    {
      "inputs": [],
      "name": "renounceOwnership",
      "outputs": [],
      "stateMutability": "nonpayable",
      "type": "function"
    },
    {
      "inputs": [
        {
          "internalType": "address",
          "name": "newOwner",
          "type": "address"
        }
      ],
      "name": "transferOwnership",
      "outputs": [],
      "stateMutability": "nonpayable",
      "type": "function"
    },
    {
      "inputs": [
        {
          "internalType": "uint256",
          "name": "_poolId",
          "type": "uint256"
        },
        {
          "internalType": "address payable",
          "name": "_recipient",
          "type": "address"
        }
      ],
      "name": "withdrawFunds",
      "outputs": [],
      "stateMutability": "nonpayable",
      "type": "function"
    }
  ],
  "bytecode": "0x608060405234801561001057600080fd5b506001600055338061003c57604051631e4fbdf760e01b81526000600482015260240160405180910390fd5b6100458161004b565b5061009d565b600180546001600160a01b038381166001600160a01b0319831681179093556040519116919082907f8be0079c531659141344cd1fd0a4f28419497f9722a3daafe3b4186f6b6457e090600090a35050565b611535806100ac6000396000f3fe6080604052600436106100c25760003560e01c80638da5cb5b1161007f578063c1cbbca711610059578063c1cbbca714610237578063e081dbf91461024a578063f2fde38b1461026a578063f525cb681461028a57600080fd5b80638da5cb5b146101c35780638ec08354146101f5578063b3777fa61461021757600080fd5b806316338388146100c75780632f380b35146100fa578063583f3e4414610127578063698f2d0b1461015f578063715018a61461018c578063744bfe61146101a3575b600080fd5b3480156100d357600080fd5b506100e76100e2366004611035565b6102a0565b6040519081526020015b60405180910390f35b34801561010657600080fd5b5061011a6101153660046110b4565b61043b565b6040516100f191906111ac565b34801561013357600080fd5b506100e76101423660046111db565b600460209081526000928352604080842090915290825290205481565b34801561016b57600080fd5b5061017f61017a3660046110b4565b610627565b6040516100f1919061120b565b34801561019857600080fd5b506101a1610693565b005b3480156101af57600080fd5b506101a16101be3660046111db565b6106a7565b3480156101cf57600080fd5b506001546001600160a01b03165b6040516001600160a01b0390911681526020016100f1565b34801561020157600080fd5b5061020a61085d565b6040516100f19190611258565b34801561022357600080fd5b506101dd6102323660046112ba565b610b21565b6101a16102453660046110b4565b610b59565b34801561025657600080fd5b506100e76102653660046111db565b610e2d565b34801561027657600080fd5b506101a16102853660046112dc565b610e57565b34801561029657600080fd5b506100e760025481565b60006102aa610e92565b6000831161030b5760405162461bcd60e51b8152602060048201526024808201527f54617267657420616d6f756e74206d75737420626520677265617465722074686044820152630616e20360e41b60648201526084015b60405180910390fd5b6000821161035b5760405162461bcd60e51b815260206004820152601f60248201527f4475726174696f6e206d7573742062652067726561746572207468616e2030006044820152606401610302565b6002805490600061036b8361130f565b90915550600090506103808362015180611328565b61038a904261133f565b600280546000818152600360205260409020908155600181018a905591925081016103b588826113db565b50600381016103c487826113db565b5060048101859055600060058201556006810182905560078101805461ffff191660011790556002546040518991907f61bd6cf747c9a26272fb0d165b09a6e9ddb127c6a2f84db023522c5626d357cf90610424908a908a90889061149b565b60405180910390a350506002549695505050505050565b610443610f3b565b60008211801561045557506002548211155b6104715760405162461bcd60e51b8152600401610302906114c0565b600060036000848152602001908152602001600020905060405180610140016040528082600001548152602001826001015481526020018260020180546104b790611352565b80601f01602080910402602001604051908101604052809291908181526020018280546104e390611352565b80156105305780601f1061050557610100808354040283529160200191610530565b820191906000526020600020905b81548152906001019060200180831161051357829003601f168201915b5050505050815260200182600301805461054990611352565b80601f016020809104026020016040519081016040528092919081815260200182805461057590611352565b80156105c25780601f10610597576101008083540402835291602001916105c2565b820191906000526020600020905b8154815290600101906020018083116105a557829003601f168201915b505050918352505060048301546020808301919091526005808501546040808501919091526006860154606085015260079095015460ff8082161515608086015261010090910416151560a084015260009687529052919093205460c0909101525090565b60008181526005602090815260409182902080548351818402810184019094528084526060939283018282801561068757602002820191906000526020600020905b81546001600160a01b03168152600190910190602001808311610669575b50505050509050919050565b61069b610e92565b6106a56000610ebf565b565b6106af610e92565b6106b7610f11565b6000821180156106c957506002548211155b6106e55760405162461bcd60e51b8152600401610302906114c0565b60008281526003602052604090206007810154610100900460ff168061070f575080600601544210155b61076e5760405162461bcd60e51b815260206004820152602a60248201527f506f6f6c206e6f7420636f6d706c65746564206f7220646561646c696e65206e6044820152691bdd081c995858da195960b21b6064820152608401610302565b60008160050154116107b95760405162461bcd60e51b81526020600482015260146024820152734e6f2066756e647320746f20776974686472617760601b6044820152606401610302565b60058101805460009182905560078301805460ff1916905560405190916001600160a01b0385169183156108fc0291849190818181858888f19350505050158015610808573d6000803e3d6000fd5b50826001600160a01b0316847ff440aec6b52895984d061d622e6edeba6210f7c3e059be920663140c084560d78360405161084591815260200190565b60405180910390a350506108596001600055565b5050565b6060600060015b60025481116108a75760008181526003602052604090206007015460ff161561089557816108918161130f565b9250505b8061089f8161130f565b915050610864565b5060008167ffffffffffffffff8111156108c3576108c3610f92565b6040519080825280602002602001820160405280156108fc57816020015b6108e9610f3b565b8152602001906001900390816108e15790505b509050600060015b6002548111610b185760008181526003602052604090206007015460ff1615610b06576000600360008381526020019081526020016000209050604051806101400160405280826000015481526020018260010154815260200182600201805461096d90611352565b80601f016020809104026020016040519081016040528092919081815260200182805461099990611352565b80156109e65780601f106109bb576101008083540402835291602001916109e6565b820191906000526020600020905b8154815290600101906020018083116109c957829003601f168201915b505050505081526020018260030180546109ff90611352565b80601f0160208091040260200160405190810160405280929190818152602001828054610a2b90611352565b8015610a785780601f10610a4d57610100808354040283529160200191610a78565b820191906000526020600020905b815481529060010190602001808311610a5b57829003601f168201915b5050509183525050600483015460208083019190915260058085015460408085019190915260068601546060850152600786015460ff8082161515608087015261010090910416151560a0850152600087815291909252205460c0909101528451859085908110610aeb57610aeb6114e9565b60200260200101819052508280610b019061130f565b935050505b80610b108161130f565b915050610904565b50909392505050565b60056020528160005260406000208181548110610b3d57600080fd5b6000918252602090912001546001600160a01b03169150829050565b610b61610f11565b600081118015610b7357506002548111155b610b8f5760405162461bcd60e51b8152600401610302906114c0565b6000818152600360205260409020600781015460ff16610be65760405162461bcd60e51b8152602060048201526012602482015271506f6f6c206973206e6f742061637469766560701b6044820152606401610302565b80600601544210610c395760405162461bcd60e51b815260206004820152601860248201527f506f6f6c20646561646c696e65206861732070617373656400000000000000006044820152606401610302565b60003411610c955760405162461bcd60e51b815260206004820152602360248201527f436f6e747269627574696f6e206d75737420626520677265617465722074686160448201526206e20360ec1b6064820152608401610302565b6007810154610100900460ff1615610cef5760405162461bcd60e51b815260206004820152601960248201527f506f6f6c20697320616c726561647920636f6d706c65746564000000000000006044820152606401610302565b60008281526004602090815260408083203384529091528120549003610d3e5760008281526005602090815260408220805460018101825590835291200180546001600160a01b031916331790555b600082815260046020908152604080832033845290915281208054349290610d6790849061133f565b9250508190555034816005016000828254610d82919061133f565b9091555050604051348152339083907f0a4a91237423e0a1766a761c7cb029311d8b95d6b1b81db1b949a70c98b4e08e9060200160405180910390a38060040154816005015410610e1f5760078101805461ffff1916610100179055600581015460405183917fe6e3f8167a0352c51f4a5dc639deb5c5679ccf396f92c55db62037faa0a2351291610e1691815260200190565b60405180910390a25b50610e2a6001600055565b50565b60008281526004602090815260408083206001600160a01b03851684529091529020545b92915050565b610e5f610e92565b6001600160a01b038116610e8957604051631e4fbdf760e01b815260006004820152602401610302565b610e2a81610ebf565b6001546001600160a01b031633146106a55760405163118cdaa760e01b8152336004820152602401610302565b600180546001600160a01b038381166001600160a01b0319831681179093556040519116919082907f8be0079c531659141344cd1fd0a4f28419497f9722a3daafe3b4186f6b6457e090600090a35050565b600260005403610f3457604051633ee5aeb560e01b815260040160405180910390fd5b6002600055565b60405180610140016040528060008152602001600081526020016060815260200160608152602001600081526020016000815260200160008152602001600015158152602001600015158152602001600081525090565b634e487b7160e01b600052604160045260246000fd5b600082601f830112610fb957600080fd5b813567ffffffffffffffff80821115610fd457610fd4610f92565b604051601f8301601f19908116603f01168101908282118183101715610ffc57610ffc610f92565b8160405283815286602085880101111561101557600080fd5b836020870160208301376000602085830101528094505050505092915050565b600080600080600060a0868803121561104d57600080fd5b85359450602086013567ffffffffffffffff8082111561106c57600080fd5b61107889838a01610fa8565b9550604088013591508082111561108e57600080fd5b5061109b88828901610fa8565b9598949750949560608101359550608001359392505050565b6000602082840312156110c657600080fd5b5035919050565b6000815180845260005b818110156110f3576020818501810151868301820152016110d7565b506000602082860101526020601f19601f83011685010191505092915050565b60006101408251845260208301516020850152604083015181604086015261113d828601826110cd565b9150506060830151848203606086015261115782826110cd565b9150506080830151608085015260a083015160a085015260c083015160c085015260e083015161118b60e086018215159052565b50610100838101511515908501526101209283015192909301919091525090565b6020815260006111bf6020830184611113565b9392505050565b6001600160a01b0381168114610e2a57600080fd5b600080604083850312156111ee57600080fd5b823591506020830135611200816111c6565b809150509250929050565b6020808252825182820181905260009190848201906040850190845b8181101561124c5783516001600160a01b031683529284019291840191600101611227565b50909695505050505050565b6000602080830181845280855180835260408601915060408160051b870101925083870160005b828110156112ad57603f1988860301845261129b858351611113565b9450928501929085019060010161127f565b5092979650505050505050565b600080604083850312156112cd57600080fd5b50508035926020909101359150565b6000602082840312156112ee57600080fd5b81356111bf816111c6565b634e487b7160e01b600052601160045260246000fd5b600060018201611321576113216112f9565b5060010190565b8082028115828204841417610e5157610e516112f9565b80820180821115610e5157610e516112f9565b600181811c9082168061136657607f821691505b60208210810361138657634e487b7160e01b600052602260045260246000fd5b50919050565b601f8211156113d657600081815260208120601f850160051c810160208610156113b35750805b601f850160051c820191505b818110156113d2578281556001016113bf565b5050505b505050565b815167ffffffffffffffff8111156113f5576113f5610f92565b611409816114038454611352565b8461138c565b602080601f83116001811461143e57600084156114265750858301515b600019600386901b1c1916600185901b1785556113d2565b600085815260208120601f198616915b8281101561146d5788860151825594840194600190910190840161144e565b508582101561148b5787850151600019600388901b60f8161c191681555b5050505050600190811b01905550565b6060815260006114ae60608301866110cd565b60208301949094525060400152919050565b6020808252600f908201526e125b9d985b1a59081c1bdbdb081251608a1b604082015260600190565b634e487b7160e01b600052603260045260246000fdfea2646970667358221220b18c4757a9bdc25ba640ae6c36a1f4927516fe3c377a32aacbc16de4103c203a64736f6c63430008140033",
  "linkReferences": {},
  "deployedLinkReferences": {}
}